:0400000500000A816C
:020000040000FA
:1000000000040020810A000015070000610A0000BA
:100010001F07000029070000330700000000000050
:10002000000000000000000000000000A50A000021
:100030003D070000000000004707000051070000D6
:100040005B070000650700006F07000079070000EC
:10005000830700008D07000097070000A10700003C
:10006000AB070000B5070000BF070000C90700008C
:10007000D3070000DD070000E7070000F1070000DC
:10008000FB070000050800000F0800001908000029
:10009000230800002D080000370800004108000078
:1000A0004B080000550800005F08000069080000C8
:1000B000730800007D080000870800009108000018
:1000C0009B080000A5080000AF080000B908000068
:1000D000C3080000CD080000D7080000E1080000B8
:1000E000EB080000F5080000FF0800000909000007
:1000F000130900001D090000270900003109000054
:100100003B0900001FB500F003F88DE80F001FBD8C
:1001100000F0ACBC40F6FC7108684FF01022401CA7
:1001200008D00868401C09D00868401C04D0086842
:1001300000F037BA9069F5E79069F9E7704770B554
:100140000B46010B184400F6FF70040B4FF0805073
:100150000022090303692403406943431D1B104621
:1001600000F048FA29462046BDE8704000F042BA47
:10017000F0B54FF6FF734FF4B4751A466E1E11E0DA
:10018000A94201D3344600E00C46091B30F8027B3B
:10019000641E3B441A44F9D19CB204EB134394B25D
:1001A00004EB12420029EBD198B200EB134002EBB2
:1001B000124140EA0140F0BDF34992B00446D1E952
:1001C0000001CDE91001FF224021684600F0F4FB58
:1001D00094E80F008DE80F00684610A902E004C8FB
:1001E00041F8042D8842FAD110216846FFF7C0FF7C
:1001F0001090AA208DF8440000F099F9FFF78AFFCB
:1002000040F6FC7420684FF01025401C0FD0206889
:1002100010226946803000F078F92068401C08D030
:100220002068082210A900F070F900F061F9A869AF
:10023000EEE7A869F5E74FF080500369406940F6A2
:10024000FC71434308684FF01022401C06D0086838
:1002500000F58050834203D2092070479069F7E788
:100260000868401C04D00868401C03D00020704778
:100270009069F9E70420704770B504460068C34DE3
:10028000072876D2DFE800F033041929631E250021
:10029000D4E9026564682946304600F062F92A46CE
:1002A0002146304600F031F9AA002146304600F0E0
:1002B00057FB002800D0032070BD00F009FC4FF46C
:1002C000805007E0201D00F040F90028F4D100F034
:1002D000FFFB60682860002070BD241D94E80700C3
:1002E000920000F03DFB0028F6D00E2070BDFFF715
:1002F000A2FF0028FAD1D4E901034FF0805100EBAE
:10030000830208694D69684382420ED840F6F8704E
:1003100005684FF010226D1C09D0056805EB8305B8
:100320000B6949694B439D4203D9092070BD55694A
:10033000F4E70168491C03D00068401C02D003E0C8
:100340005069FAE70F2070BD2046FFF735FFFFF731
:1003500072FF0028F7D1201D00F0F7F80028F2D135
:1003600060680028F0D100F0E2F8FFF7D3FE00F05B
:10037000BFF8072070BD10B50C46182802D0012028
:10038000086010BD2068FFF777FF206010BD41684E
:10039000054609B1012700E0002740F6F8742068FF
:1003A0004FF01026401C2BD02068AA68920000F065
:1003B000D7FA38B3A86881002068401C27D020688D
:1003C000FFF7BDFED7B12068401C22D026684FF051
:1003D0008050AC686D68016942695143A9420DD9EA
:1003E000016940694143A14208D92146304600F0E5
:1003F000B8F822462946304600F087F800F078F831
:100400007069D2E700F093F8FFF784FEF6E77069B1
:10041000D6E77669DBE740F6FC7420684FF01026DB
:10042000401C23D02068401C0CD02068401C1FD0EA
:100430002568206805F18005401C1BD027683879A5
:10044000AA2819D040F6F8700168491C42D001680A
:10045000491C45D00168491C3ED001680968491C07
:100460003ED00168491C39D000683EE0B069DAE747
:10047000B569DEE7B769E2E710212846FFF778FEA5
:100480003968814222D12068401C05D0D4F8001080
:1004900001F18002C03107E0B169F9E730B108CA63
:1004A00051F8040D984201D1012000E000208A4259
:1004B000F4D158B1286810B1042803D0FEE72846CB
:1004C000FFF765FF3149686808600EE0FFF722FE1C
:1004D00000F00EF87169BBE77169BFE7706904E06D
:1004E0004FF480500168491C01D000F0CBFAFEE7C0
:1004F000BFF34F8F26480168264A01F4E06111439B
:100500000160BFF34F8F00BFFDE72DE9F0411746B3
:100510000D460646002406E03046296800F054F8EF
:10052000641C2D1D361DBC42F6D3BDE8F08140F69B
:10053000FC700168491C04D0D0F800004FF48051D1
:10054000FDE54FF010208069F8E74FF080510A690F
:10055000496900684A43824201D810207047002050
:10056000704770B50C4605464FF4806608E0284693
:1005700000F017F8B44205D3A4F5806405F5805562
:10058000002CF4D170BD0000F40A0000000000202F
:100590000CED00E00400FA05144801680029FCD0C5
:1005A0007047134A0221116010490B68002BFCD0E0
:1005B0000F4B1B1D186008680028FCD0002010603D
:1005C00008680028FCD07047094B10B501221A605A
:1005D000064A1468002CFCD0016010680028FCD08A
:1005E0000020186010680028FCD010BD00E4014015
:1005F00004E5014070B50C46054600F073F810B9EB
:1006000000F07EF828B121462846BDE8704000F091
:1006100007B821462846BDE8704000F037B8000012
:100620007FB5002200920192029203920A0B000B06
:100630006946012302440AE0440900F01F0651F80C
:10064000245003FA06F6354341F82450401C8242F8
:10065000F2D80D490868009A10430860081D016827
:10066000019A1143016000F03DF800280AD00649C4
:1006700010310868029A10430860091D0868039A3F
:10068000104308607FBD00000006004030B50F4CED
:10069000002200BF04EB0213D3F800582DB9D3F8A1
:1006A000045815B9D3F808581DB1521C082AF1D3C3
:1006B00030BD082AFCD204EB0212C2F80008C3F8CD
:1006C00004180220C3F8080830BD000000E0014013
:1006D0004FF08050D0F83001082801D0002070473A
:1006E000012070474FF08050D0F83011062905D016
:1006F000D0F83001401C01D0002070470120704725
:100700004FF08050D0F830010A2801D00020704707
:100710000120704708208F490968095808471020B0
:100720008C4909680958084714208A4909680958FA
:100730000847182087490968095808473020854923
:100740000968095808473820824909680958084744
:100750003C20804909680958084740207D490968BC
:100760000958084744207B49096809580847482028
:1007700078490968095808474C207649096809589A
:10078000084750207349096809580847542071499F
:1007900009680958084758206E49096809580847E8
:1007A0005C206C4909680958084760206949096854
:1007B00009580847642067490968095808476820AC
:1007C00064490968095808476C2062490968095852
:1007D000084770205F4909680958084774205D4937
:1007E00009680958084778205A490968095808478C
:1007F0007C205849096809580847802055490968EC
:10080000095808478420534909680958084788202F
:1008100050490968095808478C204E490968095809
:10082000084790204B4909680958084794204949CE
:10083000096809580847982046490968095808472F
:100840009C204449096809580847A0204149096883
:1008500009580847A4203F49096809580847A820B3
:100860003C49096809580847AC203A4909680958C1
:100870000847B0203749096809580847B420354966
:10088000096809580847B8203249096809580847D3
:10089000BC203049096809580847C0202D4909681B
:1008A00009580847C4202B49096809580847C82037
:1008B0002849096809580847CC2026490968095879
:1008C0000847D0202349096809580847D4202149FE
:1008D000096809580847D8201E4909680958084777
:1008E000DC201C49096809580847E02019490968B3
:1008F00009580847E4201749096809580847E820BB
:100900001449096809580847EC2012490968095830
:100910000847F0200F49096809580847F4200D4995
:10092000096809580847F8200A490968095808471A
:10093000FC2008490968095808475FF48070054998
:10094000096809580847000003480449024A034B54
:100950007047000000000020000B0000000B0000AA
:1009600040EA010310B59B070FD1042A0DD310C82C
:1009700008C9121F9C42F8D020BA19BA884201D97E
:10098000012010BD4FF0FF3010BD1AB1D30703D0C6
:10099000521C07E0002010BD10F8013B11F8014B7C
:1009A0001B1B07D110F8013B11F8014B1B1B01D198
:1009B000921EF1D1184610BD02F0FF0343EA032254
:1009C00042EA024200F005B87047704770474FF0A6
:1009D00000020429C0F0128010F0030C00F01B800C
:1009E000CCF1040CBCF1020F18BF00F8012BA8BF1A
:1009F00020F8022BA1EB0C0100F00DB85FEAC17CDE
:100A000024BF00F8012B00F8012B48BF00F8012B90
:100A100070474FF0000200B51346944696462039C1
:100A200022BFA0E80C50A0E80C50B1F12001BFF4A7
:100A3000F7AF090728BFA0E80C5048BF0CC05DF80D
:100A400004EB890028BF40F8042B08BF704748BF5B
:100A500020F8022B11F0804F18BF00F8012B7047CF
:100A6000014B1B68DB6818470000002009480A4951
:100A70007047FFF7FBFFFFF745FB00BD20BFFDE719
:100A8000064B1847064A1060016881F308884068E1
:100A900000470000000B0000000B000017040000DE
:100AA000000000201EF0040F0CBFEFF30881EFF3ED
:100AB0000981886902380078182803D100E0000015
:100AC000074A1047074A12682C3212681047000084
:100AD00000B5054B1B68054A9B58984700BD0000B0
:100AE0007703000000000020F00A0000040000006E
:100AF000001000000000000000FFFFFF0090D00386
:02000004000FEB
:1040000000000420D1B20F00F9B20F00FBB20F0084
:10401000FDB20F00FFB20F0001B30F00000000005F
:10402000000000000000000000000000A5450F0097
:1040300005B30F000000000007B30F00494E0F004A
:104040005D4F0F000BB30F000BB30F000BB30F004E
:104050000BB30F000BB30F000BB30F000BB30F002C
:104060000BB30F000BB30F000BB30F000BB30F001C
:104070000BB30F000BB30F000BB30F000BB30F000C
:104080000BB30F0025730F000BB30F000BB30F0022
:10409000E1730F000BB30F00714B0F000BB30F0058
:1040A0000BB30F000BB30F000BB30F000BB30F00DC
:1040B0000BB30F000BB30F00000000000000000066
:1040C0000BB30F000BB30F000BB30F000BB30F00BC
:1040D0000BB30F000BB30F000BB30F00A5850F0040
:1040E0000BB30F000BB30F000BB30F000000000069
:1040F000000000000BB30F00000000000BB30F0026
:1041000000000000000000000000000000000000AF
:10411000000000000000000000000000000000009F
:10412000000000000000000000000000000000008F
:10413000000000000000000000000000000000007F
:10414000000000000000000000000000000000006F
:10415000000000000000000000000000000000005F
:10416000000000000000000000000000000000004F
:10417000000000000000000000000000000000003F
:10418000000000000000000000000000000000002F
:10419000000000000000000000000000000000001F
:1041A000000000000000000000000000000000000F
:1041B00000000000000000000000000000000000FF
:1041C00000000000000000000000000000000000EF
:1041D00000000000000000000000000000000000DF
:1041E00000000000000000000000000000000000CF
:1041F00000000000000000000000000000000000BF
:1042000010B5054C237833B9044B13B10448AFF310
:1042100000800123237010BDC48600200000000030
:1042200044B90F0008B5034B1BB103490348AFF372
:10423000008008BD00000000C886002044B90F00BF
:10424000154B002B08BF134B9D46A3F5803A002168
:104250008B460F461348144A121A00F05FF80F4BB2
:10426000002B00D098470E4B002B00D09847002021
:10427000002104000D000D48002802D00C4800F079
:10428000FFF800F027F82000290000F08BFA00F07A
:1042900011F800BF0000080000000420000000002A
:1042A00000000000C4860020BCCE002081440F0026
:1042B0008D440F0008B50021044600F089F8044B36
:1042C0001868C36B03B19847204600F041F900BF5E
:1042D00048B70F0070B50D4E0D4D761BB61006D0C9
:1042E0000024013455F8043B9847A642F9D1094E01
:1042F000094D761B07F01CFAB61006D000240134D5
:1043000055F8043B9847A642F9D170BDB886002005
:10431000B8860020C0860020B8860020F0B486074A
:1043200046D0541E002A3CD0CAB2034602E014F123
:10433000FF3436D303F8012B9D07F8D1032C29D97C
:10434000CDB245EA05250F2C45EA054533D9A4F140
:104350001006360903F1200707EB061703F11002D8
:1043600042E9045542E902551032BA42F8D1721CB2
:1043700014F00C0F03EB021204F00F0613D0331FDE
:1043800023F003030433134442F8045B9342FBD14C
:1043900006F003042CB1C9B21C4403F8011B9C4273
:1043A000FBD1F0BC704734461346002CF3D1F8E73C
:1043B00014460346C2E71A462646E0E7024B13B10D
:1043C000024800F05DB87047000000008D440F0007
:1043D0002DE9F04F284B83B00F460190186800F08C
:1043E0006FF8264BD3F800A04FF00009DAF84861C7
:1043F0008EB17468651E0ED4013406EB84044FF050
:1044000001087FB1D4F80031BB420BD0013D6B1CD9
:10441000A4F10404F5D1184B186803B0BDE8F04FBF
:1044200000F050B873682268013BAB420CBF756066
:10443000C4F80090002AE9D0D6F88811D6F804B064
:1044400008FA05FC1CEA010F08D1904772685A452A
:10445000CCD1DAF84831B342D8D0C7E7D6F88C319E
:10446000D4F880101CEA030F02D101989047EDE7C1
:1044700008469047EAE700BF2884002048B70F00AD
:10448000002301461A46184600F01EB838B50A4CFB
:104490000A4D641BA4100AD004F18043013B05EBD4
:1044A0008305013C55F804399847002CF9D1BDE843
:1044B000384007F043B900BFC4860020C086002002
:1044C000704700BF704700BF2DE9F0411E4C054604
:1044D000206890461F460E46FFF7F2FF1B4B1A68F6
:1044E000D2F8483133B35A6820681F2A27DC4DB907
:1044F000911C01325A6043F82160FFF7E3FF00206E
:10450000BDE8F08103EB82010124C1F8888004FA40
:1045100002FED3F88841022D44EA0E0CC3F888C18C
:10452000C1F80871E4D1D3F88C114EEA0104C3F844
:104530008C41DDE702F5A673C2F84831D3E7FFF7F7
:10454000C1FF4FF0FF30DBE72884002048B70F00A1
:10455000FEE700BF38B50C46F8B90968D9B1104A72
:10456000914215460CD0531A3B2B12D93C222846B7
:1045700006F0DAFE04E0C85CD05413F1FF33FAD23F
:1045800000223C21064803F02DFA0023A88723606F
:1045900038BD3D23F1E70E23F9E70123F7E700BF1C
:1045A000807F00206FF00203064A9E4502D1EFF3A0
:1045B000098101E0EFF308818869A0F10200007829
:1045C000104700BF55450F0038B50546A8B10D4C42
:1045D00000223C21204603F005FAA38F83420ED12E
:1045E000224604F13C0152F8040B45F8040B8A42C0
:1045F000F9D10133A387002038BD0E20FCE70B2042
:10460000FAE700BF807F00200B2970B504461546ED
:1046100030D90389053300EB43030144CA1AD2B2EF
:10462000012A27D98B4225D81946134806F07CFE6B
:104630002388522B06D1AB0711D062884CF66863F1
:104640009A420CD00F2014E034F8022B824204D09E
:104650002E88964203F1010308D1002009E0218948
:1046600000230A344FF6FE7043F20C059942EBD852
:104670000B2070BD0920FCE7E086002008B5002271
:1046800003F0B0F9044A5178137843EA01239842C1
:1046900014BF0B20002008BDE086002038B50C4C6C
:1046A00021684B1C054612D04FF48052094806F091
:1046B0002DFE48B115B1206800F0ACFC4FF48062CB
:1046C0000449206800F0C6FC4FF0FF33236038BD7A
:1046D0002C840020EC8600202DE9F0410F4E9046FE
:1046E00020F47F64326824F00F04A24205460F468E
:1046F00009D01846FFF7D2FF4FF4805221460848F0
:10470000346006F011FE0648C5F30B0542463946F3
:104710002844BDE8F04106F007BE00BF2C8400200D
:10472000EC860020BFF34F8F0549064BCA6802F4A0
:10473000E0621343CB60BFF34F8F00BFFDE700BFC4
:1047400000ED00E00400FA054BDF704710DF704712
:1047500011DF704713DF704718DF704760DF704765
:1047600069DF704761DF70471FB50023CDE9013372
:104770000393684602230093FFF7EEFF05B05DF850
:1047800004FB000008B5034B1B68DB0700D500BE27
:10479000FFF7C8FFF0ED00E0014B1878704700BF4D
:1047A000ED9600202DE9FF484D4B4FF4E062C3F831
:1047B000402500F067FA00F0C5FE002000F04CFB39
:1047C00000F042FF48B1052000F046FB00F04EFF2C
:1047D00000F072FF062000F03FFB4FF08043414F96
:1047E000D3F81C55B12D0CBF012300233B704FD0D3
:1047F000A5F1A8014C424C413B4EDFF8FC9004F07F
:10480000010333704FF08043D3F8003403F0010804
:10481000002C40D14E2D3DD0572D3BD0334B1B6843
:104820001A68334B9A4202D1B8F1000F32D16D2D84
:1048300031D0122000F0B6F904463378002B35D180
:10484000122000F0AFF910B10E2000F0ABF900F02B
:104850000100307000F0A6FDDFF8A0A0834630B163
:104860002CB9224B1B681A68224B9A4259D043F24A
:1048700004031B684B4509BF43F208034FF49053F0
:104880001B6803F500731B68534539D1012448E0C8
:104890000124B1E701244FF0804300226D2DC3F8BD
:1048A0001C2500F0E580002CC7D1C2E70120CEE72F
:1048B0005C4636E0444634E04FF480030B6070E021
:1048C000022000F0C9FAA5F14E035842584103F006
:1048D0006DFEADE000221146C2E003F0B7FEC7E076
:1048E00000A00040EE960020ED96002030840020CD
:1048F000D51A5A007E67E54EDBE5B1517CB0EE87F4
:10490000002CC3D1BBF1000FD2D0B8F1000FD1D031
:10491000654B664A1B6866481A60664B43F00103A4
:10492000984743F20403604A1B6812684B4509BF6D
:1049300043F208034FF490531B6803F500731B68A0
:1049400053450CBF5C4B002313601CB9BBF1000F37
:1049500040F08E803378002BB2D0082000F07CFA33
:104960003B780BB9FFF700FF01234FF474203B7035
:10497000FFF7F0FE514B52491868019001A8FFF76C
:10498000E5FE504991F816335A09EC231341DA0732
:1049900007D54D4B9A68002A8ED01A6842F48002DF
:1049A0001A600C22494B029300210DEB0200FFF725
:1049B000B5FC40F20113029A039303A94020FFF7CC
:1049C000CFFE0C2200210DEB0200FFF7A7FC9DF8A3
:1049D0000C30029A43F0010303A9A0208DF80C309B
:1049E000FFF7BEFE0C2200210DEB0200FFF796FC44
:1049F0000124F723029AADF80E3003A923208DF885
:104A00000C40FFF7ADFE0C2200210DEB0200FFF77A
:104A100085FC0623029A8DF80C4003A920208DF80E
:104A20000E40ADF81030FFF79BFE02A8FFF796FE90
:104A300043F2040330781B684B4509BF43F2080377
:104A40004FF490531B6803F500731B68534504D063
:104A5000572D02D04E2D7FF43DAF012240F6B831E4
:104A600000F088FD3378002B3FF437AFFFF770FE7E
:104A700000F086F900F096FC98B100F0E5FD80B9F1
:104A800043F204031B684B4505D13B780BB9FFF794
:104A90006BFEFFF75DFE044B1B6800221A6000F0FE
:104AA000A5FDFFF73FFE00BF30840020D51A5A0055
:104AB0000048E80150B70F007E67E54E4CB70F0085
:104AC00085470F0000E100E0F0CD002000800020CD
:104AD00010B5FEB04FF4FA73ADF802300DF10201DB
:104AE000002301A8ADF80430FFF73CFE044640B9AE
:104AF000BDF80430102B07D0112B0CD001A801F009
:104B000063F820467EB010BD054B01221A700720C5
:104B100000F0A2F9F2E7024B18700820F8E700BF96
:104B2000EC96002013B5002301A80193FFF70CFEBB
:104B3000044660B9019802F09FFA019B0A2B09D044
:104B4000092B09D00B2B02D1012004F0EBFB2046EE
:104B500002B010BD2046F8E70220F6E708B5FFF7DF
:104B6000B7FF0528FBD1FFF7DDFF0528F7D108BD0A
:104B70000021024A084602F055BE00BF5D4B0F00FF
:104B80001F2884BF00F01F00044B054A98BF4FF058
:104B9000A04300F5E07043F8202070470003005068
:104BA0000C0003001F288ABF064B4FF0A04300F003
:104BB0001F00D3F8103523FA00F0C04300F00100C5
:104BC000704700BF00030050704700234FF0FF32D2
:104BD0008360C0F80035C0F86025C0F86425C0F8CF
:104BE0006825C0F86C2540F2FF32C0F80435C0F8E3
:104BF0000825C0F80C35C0F81035C0F81435C0F8D9
:104C00002035C0F8243570471B4B00221F2930B5D2
:104C1000C3F800258BBF01F01F030B46174A4FF066
:104C2000A04203F5E074032542F82450012404FA5D
:104C300003F3C2F80C3500F5AC700F4B002243F8BB
:104C40002010FF21C3F804250220C3F80815042111
:104C5000C3F80C15C3F810050948C3F81425C3F8A8
:104C60002005C3F82415C3F82825C3F82C25C3F85C
:104C70000045C3F8102130BD00C0014000030050C2
:104C8000E498002038B54FF0804301240025DC6013
:104C90001220C3F818559C60FFF772FF0E20FFF733
:104CA0006FFF2D4B4FF4C8502343984711212846DE
:104CB000FFF7AAFFFFF788FF4FF01023D3F8043364
:104CC00003F00703052B25D0244BC3F80445D3F884
:104CD0000024002AFBD04FF01021D1F8042322F049
:104CE000070242F00502C1F804230022C3F804259C
:104CF0001A4AD2F80034002BFBD0BFF34F8F18496B
:104D0000184BCA6802F4E0621343CB60BFF34F8FC5
:104D100000BFFDE7144A1E21082002F05FFD08B124
:104D200002F018FE02F0C2FC0D49104BE02081F8A1
:104D300023001B684FF47A72B3FBF2F3013BB3F12B
:104D4000807F07D20A4A5360002381F823009360D2
:104D50000723136038BD00BF60B70F0000E00140BB
:104D600000ED00E00400FA05F096002034840020F5
:104D700010E000E00148FFF728BF00BF00C001407D
:104D8000164B002110B51960FFF7F4FF144B154CBA
:104D90004FF40032C3F8802003F1C04303F53C53C5
:104DA0004FF48032C3F84823C3F8082301225A6025
:104DB0009A604FF080430220DA600B461F2B1A46A0
:104DC000C6BF03F01F0221464FF0A04102F5E0727A
:104DD0000133302B41F82200F0D110BD10E000E08B
:104DE00000E100E000030050074B23F81010074BD0
:104DF00000221A6082B01B680193019B044B0122C0
:104E00001A6002B0704700BFE498002010C1014052
:104E100008C001400A4B1A680A4B1B68B3FBF2F149
:104E2000500802FB1133834288BFD31A4F215943E4
:104E3000B1FBF0F1C1F1FF0189B20020FFF7D4BF4F
:104E4000EC980020E0980020024A136801331360B8
:104E5000FFF7E0BFE09800201B4A1168082823D81C
:104E6000DFE800F013051322221A1E242A00174B34
:104E700040F6B83018604FF47F4303F0103323F04E
:104E80008053994218BF13607047104B4FF49670CF
:104E900018604FF47F03F0E70C4B64221A607047F0
:104EA0000A4B40F6B83018600B46E6E7074B40F671
:104EB000B8301860FF23E0E7044B4FF49670186099
:104EC0004FF0FF13D9E700BFF0980020EC980020C6
:104ED00000F1804382B01A68002A14BF012000202C
:104EE00004D000221A601B680193019B02B0704736
:104EF0000F4B1A78D2B902784FF08041C2F34002CA
:104F0000C1F88025027802F00102C1F87825094A2B
:104F10001168C90706D4E02182F800130121C2F804
:104F20008011116001221A700348704703487047CE
:104F3000EDCD002000E100E00000AD0B0C00AD0B5A
:104F4000014B02681A607047FC9800204FF08043C4
:104F50004FF46072C3F804237047000010B54FF09F
:104F60008043D3F80443620707D54FF48470FFF7FA
:104F7000AFFF10B11E4B1B689847A30608D54FF42E
:104F80008A70FFF7A5FF18B11A4B00201B689847DD
:104F9000600608D54FF48C70FFF79AFF18B1154BD7
:104FA00001201B689847210608D54FF48E70FFF743
:104FB0008FFF18B1104B00201B689847E20508D5F9
:104FC0004FF49070FFF784FF18B10B4B01201B6862
:104FD0009847A3050AD54FF49270FFF779FF28B1DF
:104FE000054B02201B68BDE81040184710BD00BFEC
:104FF000F4980020F8980020FC980020044AD2F889
:105000000034DB07FBD50160BFF35F8F704700BF43
:1050100000E001404FF080531A69B0FBF2F302FB4D
:10502000130373B9084B0222C3F80425C3F808051B
:10503000D3F80024D207FBD50022C3F80425034887
:1050400070470348704700BF00E001400000AD0B0F
:105050000A00AD0B0A4B70B50124C3F8044501EBFF
:1050600082050C46461AAC4204D1054B0022C3F817
:10507000042570BD301954F8041BFFF7BFFFF2E799
:1050800000E00140BFF34F8F0549064BCA6802F4A8
:10509000E0621343CB60BFF34F8F00BFFDE700BF5B
:1050A00000ED00E00400FA05064B1B68082B06D152
:1050B000054B1B68032B02D8044AD05C70470020C4
:1050C000704700BF300100103401001066B70F00B8
:1050D00008B5724B1B68082B50D14FF0804300225B
:1050E000C3F80C21C3F81021C3F838254FF08052C3
:1050F00003F54043D2F80414C3F82015D2F808147D
:10510000C3F82415D2F80C14C3F82815D2F81014DB
:10511000C3F82C15D2F81414C3F83015D2F81814AB
:10512000C3F83415D2F81C14C3F84015D2F8201473
:10513000C3F84415D2F82414C3F84815D2F828143B
:10514000C3F84C15D2F82C14C3F85015D2F830140B
:10515000C3F85415D2F83414C3F86015D2F83814D3
:10516000C3F86415D2F83C14C3F86815D2F840149B
:10517000C3F86C15D2F84424C3F87025FFF794FFE8
:1051800010B1474B474A1A60FFF78EFF18B1464BE4
:10519000FB22C3F81825FFF787FF48B14349444B6A
:1051A0000A681B6822F00F0203F00F0313430B6021
:1051B000FFF77AFF18B13F4B4FF400721A60374B7C
:1051C0001B68082B09D14FF08043D3F80024D10786
:1051D00044BF6FF00102C3F80024374AD2F8883088
:1051E00043F47003C2F88830BFF34F8FBFF36F8F63
:1051F0004FF01023D3F80C22D2071ED52F4B0122DB
:10520000C3F80425D3F80024002AFBD04FF0102265
:10521000D2F80C3223F00103C2F80C32274B1A46A5
:10522000D3F800140029FBD00021C3F80415D2F8EC
:105230000034002BFBD0FFF725FFD3F80022002A13
:1052400003DBD3F80432002B23DA1C4B0122C3F812
:105250000425D3F80024002AFBD04FF0102212219D
:10526000C2F80012D3F80024002AFBD04FF010231C
:105270001222C3F80422114B1A46D3F80014002955
:10528000FBD00021C3F80415D2F80034002BFBD06A
:10529000D1E70B4B0B4A1A6008BD00BF300100106C
:1052A0008C5600404881030000F00040E40E0040AE
:1052B000580200104096024000ED00E000E001407E
:1052C000348400200090D00313DF704718DF70474C
:1052D000064B1878012803D1012904BF0221197057
:1052E00012B1104602F036BB704700BF2D99002066
:1052F00070B5124C124D134ED4F800347BB1C4F883
:105300000056C4F80456C4F80856C4F80C56C4F83D
:105310001056C4F81456C4F81856C4F81C5602F0B7
:10532000E7FA05F091FF20B104F09EFD002005F0A2
:10533000CFF93378023B022BDED870BD000001406C
:105340003546526E2D99002008B5FFF725FA88B131
:105350001C21114801F028FF08B102F0FBFA0023DC
:105360001C220E490C4801F00FFF98B1BDE808401F
:1053700002F0F0BA4FF47F20FFF74CFE07220749F6
:105380004FF47F20FFF766FE054B1A78012A04BF11
:1053900002221A7008BD00BF249900203099002015
:1053A0002D99002013B543F2040301A81A68124B8B
:1053B0009A420ABF43F208034FF480541C6800F07D
:1053C000A9F92368013302D16368013311D0019B2D
:1053D0001A88012A0DD1588820B1002299682046E8
:1053E00002F000FB019B5B881B1A5842584102B037
:1053F00010BD0020FBE700BFDBE5B15184B02DE913
:10540000F34108AC84E80F009DF82040BDF82280ED
:105410000B9D01A8DDE9097600F07CF954B9384B01
:105420000122FF21A3F802809D601A809980354BEC
:105430001A7012E0012C17D1314BBA192A449A6024
:10544000A5221A80FF229A800C9AA3F80280C3E951
:1054500003765D619A612B4B1C70FFF775FF02B0FC
:10546000BDE8F04104B07047032C0FD1019A244BE2
:1054700011881980518892689A60C3E90376AA223C
:1054800059809A805D611F4B0122D1E7022C15D112
:10549000019A1B4B1188A5290AD100229A60FF228C
:1054A0001A60FF229A800022C3E903225A61EAE7C8
:1054B00019805188926859809A60F2E7052C0ED1C4
:1054C000FFF76AF940B100F059FD08B102F042FA65
:1054D0000C4B03221A70C2E700F012FAF5E7042C15
:1054E00008D1074B00229A60FF221A60019A928825
:1054F0009A80B2E7062CB2D1024B0422EAE700BF41
:10550000309900202D99002000B50C4B1B7889B0F4
:1055100063B90B4B1B786BB905238DF80C30079BD7
:10552000009303AB0FCBFFF769FF03E004F09EFA93
:105530000028EED009B05DF804FB00BF2C990020D4
:10554000209900201FB50023CDE90233074B0193BA
:1055500001F0E6FD30B906494FF47F2301A84B6006
:1055600001F000FE05B05DF804FB00BFD1520F0052
:105570002499002070B504460E460AB180F001025D
:10558000154B02F001021A7000F06AFF054628B9B7
:1055900034B100F04FFC0546FFF7AAFE284670BD67
:1055A000BEB10E4B0E4A0F481C70214602F0AEF8F9
:1055B0004FF400454FF4FA7000214FF47A72002343
:1055C000E5FB060105F032FF22460146064802F0DF
:1055D000AFF800F071F9DEE72C9900202099002047
:1055E00009550F006CB70F00009900201FB5144B30
:1055F0004FF0FF32C3F88020C3F8802143F2040348
:105600001A68104B9A420ED143F208031C682046D8
:10561000FFF75AFE10B14FF000531C60204600F017
:105620009DF804B010BD0023CDE902334FF480543F
:1056300006236846CDE90034FFF748FEEAE700BFDD
:1056400000E100E0DBE5B15107B501A800F062F828
:10565000019B1A88A52A07D09888A0F1AA0358426E
:10566000584103B05DF804FB0120FAE710B501F0E2
:1056700021F9A8B10E4B0F4843F00103984701F000
:1056800081F808B102F066F901F014F908B102F0EE
:1056900061F901F0C1F8044638B102F05BF904E0A9
:1056A00001F0E0F804460028E4D1204610BD00BF18
:1056B00070B70F0000A8610000B589B003AB1422D9
:1056C00000211846FEF72AFE02228DF80C20002247
:1056D00000920FC8FFF792FEFFF70AFE002009B004
:1056E0005DF804FB13B5044601A800F013F8019B14
:1056F0001A8822805A8862809A68A2609A88A2805A
:10570000DA68E2601A6922615A6962619B69A36181
:1057100002B010BD014B0360704700BF00F00F00E6
:10572000F0B50346186880F308885868FF2464B20F
:10573000EFF30585002D01D1A64600472546064614
:1057400021273FBAF0B40024002500260027F0B43A
:10575000F92040B2004700BFF0BD00BFFFF7E0BF37
:1057600073B500230DF1020101A8ADF802300193D9
:1057700002F07AFDF8B9019C25785DB3174B93F8D8
:105780003020032A28D00C2606FB00F29958E9B9EC
:1057900098189D5093F830200132D2B283F830200F
:1057A000BDF802300E4A9B08013B0434436084601C
:1057B000084602F037F8019B33B128B1184602F0D1
:1057C0006FFD08B102F0C6F802B070BD01300428C8
:1057D000DAD1F0E70720EEE70420ECE74C9900204F
:1057E00029580F0010B50C230B4A4343D418D15845
:1057F00081B192F83010A0680139C9B282F8301036
:105800000021D150C4E90111043802F049FD08B16A
:1058100002F0A0F8002010BD4C99002011B10846FC
:1058200002F098B870470000214B70B50122214E5C
:105830001A7096F8303003B970BD1E4C00252368ED
:1058400083B1013B042B07D8DFE803F01C061203E9
:105850002800204600F09CFEE8B2FFF7C3FF08B125
:1058600002F078F80135042D04F10C04E7D1E0E7EB
:10587000A3686360204600F02FFE0028ECD002F001
:1058800069F8E9E7204600F015FF00F0F1FE08B1E5
:1058900002F060F80520FFF7DFFADDE700F036FFE1
:1058A00000F054FF0620BDE87040FFF7D5BA00BFF6
:1058B000209900204C99002008B50E4B002283F857
:1058C000302011460132042A1960C3E9011103F1A5
:1058D0000C03F7D1084800F0F9FD02F05DFC08B1B7
:1058E00002F038F8054802F043FC08B102F032F843
:1058F000002008BD4C9900201D580F0061570F0073
:1059000008B50020FFF76EFF0120FFF76BFF0220B4
:10591000FFF768FF0320FFF765FFBDE8084002F0CE
:1059200083BC006870476CDF70476DDF70476EDFC7
:1059300070476FDF704772DF704773DF704774DF47
:10594000704776DF704777DF70477ADF70477CDF1C
:1059500070477FDF704786DF70478FDF704790DFCB
:105960007047AFDF7047B0DF7047B1DF7047B2DF1D
:105970007047B5DF704764DF704766DF70470C28FB
:1059800013D8DFE800F014121212121209120712D3
:10599000120D0B000220704703207047042070474F
:1059A000042914BF062005207047062070470120F7
:1059B000704701F0CFBF10B5044608460321FFF73A
:1059C000DEFF03210246204601F030F918B1BDE8A0
:1059D000104001F0BFBF10BD032810B50B461446A0
:1059E00020D0042825D169B1124B18884FF6FF73D7
:1059F00098421ED01321FFF7A4FFD0B1BDE810409C
:105A000001F0A8BF104602F049F808B101F0A2FF6A
:105A1000094B1B689C420CD101220321074801F06D
:105A200005F9EAE701211846FFF7A9FF012102461F
:105A3000F4E710BD3A840020409A0020F09900203D
:105A4000F8B50A4CA3889E181D2E15460DDC276854
:105A5000FE1802F1010C07F803C07070B01C05F0CD
:105A600063FCA28802322A44A280F8BDA0990020DB
:105A7000F0B54A4D2C7893B0002C40F08A80484E07
:105A8000102221463046FEF749FC464B336018226F
:105A900021460CA8FEF742FC28230E93424B1B78AC
:105AA00001278DF8307006AE002B74D021463F4C94
:105AB000102202A8FEF732FC102202A9E01D05F018
:105AC00025FC002867D03A4839460460FFF72FFFCD
:105AD00008B101F03FFF374B374603F1100C18684F
:105AE00059683A4603C2083363451746F7D1206820
:105AF000A2880A903048A379ADF82C200021012219
:105B00008DF82E300660FFF714FF08B101F022FF78
:105B100003238DF8443004238DF8063041F23053CE
:105B2000ADF80830254B32469B798DF80A300DF1DF
:105B3000070102A8FFF71FFF012210460DF1060121
:105B4000FFF77EFF1E4805F027FC1D49C2B2092061
:105B5000FFF776FF102231460620FFF771FF0CAAEF
:105B60000F491848FFF7E7FE08B101F0F3FE154CA6
:105B7000042221780120FFF7E6FE08B101F0EAFED9
:105B800001212078FFF7D9FE08B101F0E3FE0123DF
:105B90002B7013B0F0BD0623BEE700BF249A00208F
:105BA000A099002080990020EC990020B099002055
:105BB0003C9A0020B7990020209A0020F0990020FC
:105BC00076B70F0038840020F0B504460146B1B026
:105BD0008E4801F05FF82388212B00F0058142D820
:105BE000112B00F09D8007D8012B00F0BF80102BF7
:105BF00000F08F8031B0F0BD142B00F0D5801A2B4F
:105C00005BD0132BF6D1824B03AC9A791868998834
:105C10008DF822200790DA1DADF8201017332646A4
:105C200010685168254603C508329A422C46F7D1C0
:105C3000784B09AA03F118071546186859681446E5
:105C400003C40833BB422246F7D11868206072486B
:105C5000724A008810AB8521CDE91456FFF779FE12
:105C60000028C7D0B6E0512B00F086801ED8232B29
:105C700000F0B380262BBDD1237A012BBAD1684B1B
:105C800000221A70674B19680139196000296AD11E
:105C900010AB14221846FEF741FB05228DF8402078
:105CA000149A00920FC8FFF7A9FBA3E7552B00F049
:105CB000A480562B4DD0522B9CD1574B1C884FF6AD
:105CC000FF75AC4200F08580574B1B78002B7AD0D3
:105CD0000123082255492046FFF747FE002879D1C5
:105CE0000246014602232046FFF73FFE002871D1FD
:105CF0002A460C212046FFF734FEA0F54053023B14
:105D0000012B7FF677AF08283FF474AF1128A7D195
:105D100070E7414BA2881A80414B00221A7069E754
:105D20008023ADF824303C4C3E4B208832221A6050
:105D300010A9012309AAFFF71AFE08B101F00AFE13
:105D40003B4B1B780BB9FFF793FE4FF6FF73238095
:105D500050E7A379002B7FF44DAF2F4B1321188808
:105D6000FFF7EFFD7CE7FFF783FE43E72A4B0021B7
:105D70001888FFF702FE73E7A379002B3FF43AAFD0
:105D8000A27B043A022A3FF635AF022B18BF01234B
:105D90008DF840304FF4C173ADF844301E4B10A95C
:105DA0001888FFF7E0FD5BE7194A258A518D02F15B
:105DB000180000238D420CBF014619460732A08807
:105DC000FFF7C9FD4CE71A4619462046FFF7CDFDFF
:105DD00046E7082001F0BEFD0CE70F4B00221146FC
:105DE0001888FFF7BCFD3BE70023ADF840300A4BB5
:105DF00010A91888FFF7B1FDFCE6E188064BF729EA
:105E000028BFF7211888FFF7B4FD29E7F099002093
:105E1000B0990020C89900203A840020329A0020CE
:105E2000249A00203C840020EC990020E499002072
:105E3000379A002030B5434A434800231370434A41
:105E400095B0137000F042FB01F0E8FD0446002815
:105E500061D13F48FEF7B8FB00285FD13D4B0122DE
:105E60001A7011233C488DF8043005F095FA3A4930
:105E700082B201A8FFF76BFD08B101F06BFD0822AB
:105E8000002104A8FEF74AFA344A4FF0C87304A868
:105E9000CDE90423FFF759FD08B101F05BFD0021B6
:105EA0000C2201A8FEF73AFA0823ADF804302C4B77
:105EB000029301A92B4B2C48039300F037FD08B146
:105EC00001F048FD294D4022002104A8FEF726FAE2
:105ED000284605F061FA0595254DADF810002846D5
:105EE00005F05AFA0795234DADF81800284605F03D
:105EF00053FA1123ADF8300004A8ADF84C300D95DD
:105F000000F0DEFF1C4B30221A7007225A7010225C
:105F10009A70FFF7ADFD204615B030BD04A8FFF71D
:105F200004FD08B101F016FD9DF8113004A80133FD
:105F30008DF81130FFF7F7FC002892D001F00AFD30
:105F40008FE700BF379A0020D9590F00319A0020FF
:105F5000B0990020EC99002076B70F0008001800D7
:105F6000CD5F0F00B3590F00F09900207DB70F00EF
:105F700085B70F008BB70F00329A002010B50F4B7A
:105F800001221A700E4B18884FF6FF73984207D003
:105F90001321FFF7D6FC08B101F0DCFC002010BD96
:105FA000084C2278002AF9D0074B1878FFF7C7FC75
:105FB00008B101F0CFFC00232370EFE7379A0020EF
:105FC0003A840020249A002038840020F0B50B7811
:105FD00089B005460C46092B23D8DFE813F02B00C7
:105FE000330042000A0018002400FE0007014500AB
:105FF0000C0100F08BFB0421FFF7C1FC04210246D9
:10600000284600F013FE60B101F0A4FC09E0FFF7A0
:10601000B5FF08B101F09EFC00F098FB08B100F05C
:10602000A3FB09B0F0BDFFF7A9FF0028F7D001F0EE
:1060300091FCF4E7724B01221A704B681A78714B8D
:106040001A70EEE76E4B02261E704B681B78012B10
:10605000E7D100F00DFB3146FFF791FC02463146D7
:10606000CEE7674B0322EBE70520FEF7F5FE644B16
:106070001E78022E2AD0032E4FD0012ED1D104AB90
:10608000102218460021FEF749F95E4A237A127859
:106090008DF81020002203920C2B4FF00302CDE963
:1060A0000120DCD163681846FFF73BFC0590181D02
:1060B000FFF737FC069003F10800FFF732FC07906A
:1060C00001A800F009FA0028ABD0C4E7237A13F046
:1060D000030010D0C0F104021A44D2B219464FF0A6
:1060E000000C67684E1C07F801C0F1B29142F8D16C
:1060F0001B1A043323720123049363680693237AE3
:1061000004A89B08059300F0D5FA002889D0022145
:10611000FFF735FC0221024672E7207A830702D09E
:10612000324631466CE7384E0190314601F08CFC26
:10613000014618B12846FFF73EFC72E76168019AF4
:10614000306805F0F1F8019801F0E4FC0146002800
:10615000F0D101A9304601F0EDFC01460028E9D15B
:1061600004230493019B9B08059304A833680693BA
:1061700000F00EFA074640B9244A237A11680B440E
:106180001360234B32681A604BE709281BD11F4B61
:10619000217A1A68114419601E4B1B78002B3FF4BA
:1061A00040AF1D4C2388013B9BB22380002B7FF422
:1061B00038AF284600F000FD08B101F0CBFB174BCB
:1061C0001B8823802DE7306801F068FC014610B180
:1061D0002846FFF7F0FB3946ACE70E4B01221A7058
:1061E0000E4A8B8813800C4A13801AE7094A002351
:1061F00013700A4AF8E7054B196800F0A1FC02E7A2
:10620000319A0020389A0020449A0020289A0020D1
:10621000409A0020309A00202E9A00202C9A0020CC
:1062200018DF70470129F8B50D4614461F4607D000
:10623000032912D014B32046BDE8F84001F08ABB10
:106240000F4B1B78052BF5D10E4B1B68002BF1D0A3
:106250003A46214604209847ECE7094E3378022B52
:10626000E8D1094B5B689847064B35701E68002ED5
:10627000E0D03A4621462846B047DBE7F8BD00BFEC
:10628000509A0020489A0020549A002030B589B0D6
:1062900003AC142200212046FEF740F8094B1B886E
:1062A000ADF80E30084BDB6806930025079B8DF890
:1062B0000C50009394E80F00FFF7A0F8284609B0AF
:1062C00030BD00BF609A0020AC9A002000B589B0B4
:1062D00003238DF80C300A4B1B88ADF80E30094BA8
:1062E0005A6804929A68DB680693079B00930592AC
:1062F00003AB0FCBFFF782F8002009B05DF804FB79
:10630000609A0020AC9A002000B589B001238DF876
:106310000C300F4B1B88ADF80E3043F204031A68A3
:106320000C4B9A420ABF43F208034FF480521A689A
:10633000094B596804919968DB68069305910092AE
:1063400003AB0FCBFFF75AF8002009B05DF804FB50
:10635000609A0020DBE5B151AC9A002000B589B00D
:1063600003AB142200211846FDF7D8FF04228DF854
:106370000C20002200920FC8FFF740F809B05DF82A
:1063800004FB00001A4BF7B51A4C1C601A4B022292
:106390001A70FEF701FA194B48B11968204600F04F
:1063A00003FF10B303B0BDE8F04001F0D3BA1D689D
:1063B000134F013D2D0B0135044643F204063368AB
:1063C000BB420ABF43F208034FF48050186800EB49
:1063D00004300134FEF71EFEA542F0D800230093DE
:1063E0001A4603210348FFF71DFF03B0F0BD00BFAD
:1063F000C49A0020BC9A0020509A0020649A002081
:10640000DBE5B151F0B51F4685B003230546CDE964
:106410000030960868460C4602910396FFF700FF8D
:10642000E0B1B4F5805F11D801236846CDE90035AD
:10643000CDE90246FFF7F4FE80B903236846CDE9B3
:106440000035CDE90246FFF7EBFE07E03B463A4652
:10645000E11BE81BFFF7D6FF0028E5D005B0F0BD33
:106460001FB5134B0193134B134900241C70134B9E
:1064700001A81C80CDE9024400F074FE104B10B15D
:106480001C7004B010BD43F2040211680D4A914221
:1064900008BF43F2080208490CBF12684FF480524B
:1064A0004A60094A0021116001221A70E9E700BF21
:1064B00025620F00A89A0020BC9A0020609A002054
:1064C000509A0020DBE5B1514C9A0020014B186036
:1064D000704700BF489A002010B54368224C0FCB8C
:1064E00084E80F002278500701D5910735D1606804
:1064F000830732D1A36899072FD1E16811F0030413
:106500002BD1184408441949B3F5204F086026D808
:1065100043F204031968164B994209BF43F208037A
:106520004FF469231B68C3F56A23984217D8114BAF
:106530001149196011495960D10709D5104A9A606B
:10654000104B1B78012B0CD1FFF71CFF204610BD10
:1065500092074CBF0C4A0D4AF1E70624F6E70C24DB
:10656000F4E70824F2E700BFAC9A0020649A002008
:10657000DBE5B151549A002085630F005D630F0085
:1065800009630F00509A0020CD620F008D620F004A
:106590002DE9F74F002858D0866816F0030556D12C
:1065A0002E4B1B78052B54D1DFF8BC802C4F446850
:1065B000D8F800303A68A40023449342C146BB4651
:1065C00008D94FF0FF33C8F800300C25284603B037
:1065D000BDE8F08FFEF7E0F8DFF890A050B1D8F8F2
:1065E0000030DAF800002246314600F0CDFDE0B17F
:1065F0000546EBE743F20403D8F800701A68194B1C
:106600009A420ABF43F208034FF4805018682246AA
:10661000002331463844FEF75FF8009433460022E9
:106620000121DAF80000FFF7FDFDD9F800301C4425
:10663000DBF80030C9F800409C420CD1FEF7ACF802
:106640000028C3D1FEF72AF8C0E70E25BEE71025C3
:10665000BCE70825BAE70925B8E700BF509A002033
:10666000649A0020DBE5B1514C9A0020C49A0020C6
:1066700070B50B4B1D6885B90A4E3378042B0CD1CD
:10668000094C0A4B21781A780948FDF7BDFF10B96B
:106690000523337070BD2570FCE70820FAE700BFC2
:1066A0004C9A0020509A0020A89A0020AC9A002012
:1066B000689A002070B5114B1A78032A03D0042A77
:1066C00003D0082415E004221A700D4B1C68002C1E
:1066D000F7D10C4E45683378AD005A19402A0AD8D4
:1066E000816809482A46184404F01EFE33781D4488
:1066F0003570204670BD0924FBE700BF509A00208A
:106700004C9A0020A89A0020689A002010B50B4CE3
:106710002378052B10D10A4B0A4A1B68116899424D
:106720000AD106232370084B1B685868FDF7A6FFA3
:1067300008B90723237010BD0820FCE7509A0020F9
:10674000649A00204C9A0020C49A0020044B1B78C5
:10675000072B02D1034B9B6818470820704700BFE6
:10676000509A0020549A002000B589B006238DF875
:106770000C30079B009303AB0FCBFEF73FFE09B035
:106780005DF804FBF0B58DB005A8FEF7ABFF089CE3
:10679000002C3CD00B9E04F58053B3422BD91D4BEB
:1067A000A6F5805503EA550543F208031B689C4291
:1067B00009D86800221A00F580512B463044FFF7B3
:1067C00021FE0DB0F0BD05F58053012701A8CDE9EC
:1067D0000173CDE90337FFF723FD0028F1D14FF412
:1067E000805301A80197CDE902330497FFF718FD04
:1067F0000028E6D1DDE70123CDE90136A4084FF4F6
:10680000805301A803930494FFF70AFDD9E72046BB
:10681000D7E700BF00F0FFFF00B58DB005A8FEF779
:1068200061FF099890B1089B9BB943F204031A6871
:106830000B4B9A4210D143F208031B6880080022D8
:10684000039001A8CDE90123FFF7EAFC0DB05DF844
:1068500004FB0B9A1344F1E74FF48053EEE700BFBB
:10686000DBE5B15100B58DB005A8FEF73BFF0998F7
:10687000A8B1089BB3B943F204031A680C4B9A42BF
:1068800013D143F208031B680393800803214FF4DC
:106890007422049001A8CDE90112FFF7C1FC0DB0EC
:1068A0005DF804FB0B9A1344EEE74FF48053EBE7DB
:1068B000DBE5B15130B58DB005A8FEF713FF0898A0
:1068C000A8B10B9C00F58053A34212D943F20803F0
:1068D0001B68984219D80E4BA4F5805203EA520364
:1068E0005D00421B05F580516019FFF78BFD0DB06F
:1068F00030BD800803224FF48053049001A8CDE9F5
:1069000001230394FFF78CFCF1E70E20EFE700BFB3
:1069100000F0FFFFA8DF7047AADF7047ADDF7047C8
:10692000AEDF7047B0DF704762DF70472DE9F04798
:106930000F4694B00546002800F0FC80002900F0C6
:10694000F9804B68002B00F0F5804FF6FF73038051
:106950000023ADF80A30784B04AA03F1100C164658
:1069600018685968144603C4083363452246F7D1B2
:1069700041F230530DF10A013046ADF80830FFF70F
:10698000D3FF0446002840F0D1802A1D02A901202F
:10699000FFF7C0FF0446002840F0C8809DF80A3089
:1069A000AB7101461C220DA8FDF7B8FC9DF83430F0
:1069B0000E9443F004038DF8343001AEAB798DF8BA
:1069C0000E30214641F2325303223046CDE91044C5
:1069D000CDE91244ADF80C30FDF7A0FC9DF806306F
:1069E00023F01F0343F00303214614224FF4885A77
:1069F00008A88DF80630ADF804A00DF10C08FDF7DD
:106A00008DFC4FF0140905F1080308AA0DA9A88808
:106A10000A940C94CDE90886ADF82C90FFF77CFF22
:106A20000446002840F0828001461C220DA8FDF794
:106A300075FC9DF834300E9423F0180343F01803CE
:106A40008DF83430AB798DF80E30214641F2315358
:106A500003223046CDE91044CDE91244ADF80C30A4
:106A6000FDF75CFC9DF80630ADF804A023F01F0391
:106A700043F0130321464A4608A88DF80630FDF777
:106A80004DFC1723ADF82C3008AA05F110030DA911
:106A9000A8880A940C94CDE90886FFF73DFF0446C8
:106AA000002843D101461C220DA8FDF737FC9DF8B4
:106AB00034300E9443F002038DF83430AB798DF806
:106AC0000E30214641F2345303223046CDE91044C2
:106AD000CDE91244ADF80C30FDF720FC1123ADF8E0
:106AE00004309DF8063023F01F0343F003032146D2
:106AF0004A4608A88DF80630FDF710FC02230A93D9
:106B0000ADF82C3008AA05F120030DA9A8880C9730
:106B1000CDE90886FFF700FF044638B97B68AB6211
:106B2000BB6803B1EB62054B01221A70204614B01A
:106B3000BDE8F0870E24F9E7A8B70F00C89A002037
:106B400070B5054686B070B302884FF6FF739A425F
:106B50002BD0174B1B7843B3164C1022080AE17058
:106B6000207121FA02F0090E072301266071A1713C
:106B700002A800216370ADF806302270A670FDF700
:106B8000CDFB2B8AADF808300023ADF80C3002A9FC
:106B90000DF1060328888DF80A60CDE90434FFF76B
:106BA000BFFE06B070BD0E20FBE70820F9E700BF6E
:106BB000C89A0020C99A002030B5054687B060B356
:106BC00002884FF6FF739A4229D0164B1B7833B3D5
:106BD000154C112323700B0A6170A3700B0C090E66
:106BE000E370217105230021102202A8ADF80630C0
:106BF000FDF794FB2B8AADF8083001238DF80A309D
:106C00000023ADF80C3002A90DF106032888CDE968
:106C10000434FFF785FE07B030BD0E20FBE70820E7
:106C2000F9E700BFC89A0020C99A002030B5044691
:106C300087B038B300884FF6FF73984224D0134BC7
:106C40001B780BB3124D102369700321ADF80610A9
:106C5000AA7000211A4602A82B70FDF75FFB238A59
:106C6000ADF8083001238DF80A300023ADF80C3060
:106C700002A90DF106032088CDE90435FFF750FE87
:106C800007B030BD0E20FBE70820F9E7C89A0020C6
:106C9000C99A002070B50D4688B0044640B139B19C
:106CA000826A2AB10B88112B59D003D8102B43D0FC
:106CB00008B070BD502B42D0512BF9D18B79022BEB
:106CC000F6D10A89038A9A42F2D18B7B043B022BCC
:106CD000EED99DF8163043F001038DF816300B8A7B
:106CE000ADF818304B8AADF81A30022601F11403C2
:106CF0000822002101A807938DF81060FDF70EFB14
:106D000001AAA18A20880196CDF808D0FFF706FED7
:106D1000034638B3E36A03B1984740F2FD1304A970
:106D20002088ADF81430FFF7FDFD0028C0D0E36ADD
:106D3000002BBDD09847BBE78B882380B8E7C98874
:106D400003899942B4D108238DF81030123535F8F3
:106D5000023C8DF81830059504A99047A8E74FF636
:106D6000FF73EAE79DF800202088D207D5D504A953
:106D7000ADF81430FFF7D6FD0028D8D1297D4B1E81
:106D8000072B41D8DFE803F0041A2327292B3E2DD7
:106D900000238DF804306B8A012B05D806220121CF
:106DA0002046FFF743FFC0E7012315358DF80C306F
:106DB0000295A36A01A92046984779E76A8A0123C8
:106DC0009A428DF80430F0D806220221E8E7022327
:106DD0008DF80430EDE70323FAE70423F8E70523F1
:106DE000F6E76B8A022B02D803220821D8E7AA7D96
:106DF0006B7D43EA0223002BADF808300CBF07235C
:106E00000623E5E70923E3E70322C9E7A8DF704784
:106E1000AADF70472DE9F04180468EB015461F4627
:106E20000E4611B9084600F095FD15B9284600F048
:106E300091FD1C220DEB02000021FDF76FFA9DF879
:106E40001C30ADF80480002443F002038DF81C30A0
:106E500021460123032268468DF806300894CDE9C7
:106E60000A44CDE90C44FDF759FA3B788DF800301F
:106E70007B788DF801309DF8023023F01F0343F03A
:106E800002032146142202A88DF80230FDF746FACB
:106E90000A48CDF80CD001AB029302AA149B0088DB
:106EA000ADF8105007A9ADF81240ADF81450069691
:106EB000FFF7AEFF0EB0BDE8F08100BFF09A0020F2
:106EC00030B587B041F60A0304462B4AADF80C30C2
:106ED000012003A98DF80E00FFF798FF0546D8B9E9
:106EE0002288E2B922894AB1244B0093E16804F177
:106EF0003C0342F62420FFF78DFFD8B9228C4AB11B
:106F00001F4B0093616A04F13C0342F62620FFF711
:106F100081FF78B9A36B7BB9284607B030BD194B08
:106F20000093616804F13C0342F62920FFF772FFE9
:106F30000028D7D00546EFE71A788DF810205A8838
:106F40008DF81120120A8DF812209A88DB888DF8AE
:106F500015301B0A8DF813208DF81630120A0A4BD3
:106F60008DF814200093072204F13C0304A942F693
:106F70005020FFF74FFFDDE7F09A0020E09A002055
:106F8000D09A0020D89A0020E89A002029DF704784
:106F900028DF704737B54B68CA6800930C46054B2D
:106FA00053F822504B6914F80C1B02462046A847A0
:106FB00003B030BDF49A002038B5184C237818225D
:106FC00002FB03431A795D69012A03D0032A19D011
:106FD0000F2038BD124A996910689A68DB6800036F
:106FE000121AB2F5805F1D44014438BF920828444C
:106FF00028BF4FF48062FFF7C9FF0028E9D10123C1
:10700000A370E6E74FF080531869054B80B2B5FBDB
:10701000F0F518682844FFF7BBFFEEE7049B00205B
:10702000FC9B002070B5134D6C780A2C1FD02E7875
:107030003444E4B2092C84BF0A3CE4B2182606FBAF
:107040000454A261207103C9A360049BE360AB7880
:1070500004F1100282E8030023B100206B780133B1
:107060006B7070BDFFF7A8FF1128F7D1F5E704207A
:10707000F7E700BF049B0020F8B527498B780C4642
:107080002BB1002602288E7002D003283AD0F8BD1A
:107090000D78224A182101FB0541136889680133E4
:1070A000B1EB033F13601BD863781660013B63703C
:1070B0006B1CDBB218270426092B17FB056188BF60
:1070C000A5F10903214400202370FFF763FF07FBAC
:1070D00005430022C3E904621A719A609A61DA607A
:1070E0006378002BD3D0A378002BD0D1FFF764FFB7
:1070F0000028CCD01128CAD02178182303FB0141E5
:10710000043105E00B78182202FB031104310D2035
:10711000BDE8F840FFF73EBF049B0020FC9B002029
:107120000C4B00221A600C4B0A201A809A70042122
:1071300001381A719A60C3E904129A61DA6003F1A6
:107140001803F5D1054B1860054BC3E90000C3E9EE
:1071500002007047FC9B0020049B0020F89B00204D
:10716000F49A0020064A1368042B07D00B60591CC0
:107170001160044A016842F8231000231846704742
:10718000F89B0020F49A002013B5CC180C43A407F8
:1071900008D1009313460A4601460120FFF742FF3B
:1071A00002B010BD1020FBE707B500220B4600928D
:1071B00001460320FFF736FF03B05DF804FB000033
:1071C000094A537891780133DBB2994208BF002312
:1071D000117899421FBF03705078182303FB0020D9
:1071E00014BF043000207047009C0020082910B50F
:1071F000044602D0002000F0ADFBD4E90030BDE829
:107200001040184773B5054600240DF107000E46DF
:107210008DF8074000F0ACFB0DF10600FFF7D0FF42
:1072200090B10670094B9DF8062045605A709DF894
:10723000070000F0C1FB24B9054B4FF48012C3F8DE
:107240000021204602B070BD0424F0E7009C00201D
:1072500000E100E0204B21491A682F2300BF00BF46
:1072600000BF00BF00BF00BF00BF00BF8A422FD0D9
:1072700000BF00BF00BF00BF00BF00BF00BF00BF16
:1072800000BF00BF00BF00BF00BF00BF00BF00BF06
:1072900000BF00BF00BF00BF00BF00BF00BF00BFF6
:1072A00000BF00BF00BF00BF00BF00BF00BF00BFE6
:1072B00000BF00BF00BF00BF00BF00BF00BF00BFD6
:1072C00000BF00BF00BF00BF00BF00BF00BF00BFC6
:1072D000013BC3D1704700BF348400200024F40078
:1072E0000C4B0D484FF4003210B5C3F88020012438
:1072F0004FF48033C0F84833C0F808334460FFF7D8
:10730000A9FF064B846000201860FFF7A3FF044B21
:10731000187010BD00E100E0001001401C9D00202D
:107320000D9D00202DE9F3412549264B0025C1F88C
:107330004051C1F84451C1F84851C1F84C51C1F80D
:107340000051C1F804511B68002B34D0D1F804451A
:107350001D49DFF888800968641A24F07F442F46AD
:107360001A68A24212D8A41A15441A7CDE6962B1C6
:107370005A691F7400929B6901934246082168462E
:1073800000F050FA08B100F0E5FABEB90F4A104B10
:1073900011781B788B4205D10133DBB2022B08BF79
:1073A0000023137012780B4B43F822500A4B4FF412
:1073B0008012C3F8002102B0BDE8F0813346CFE768
:1073C00000100140209D00201C9D0020199D0020E0
:1073D000189D0020109D002000E100E0ED710F00DD
:1073E0002DE9F04FA64AA74913780978A64C99428F
:1073F00085B03CD00133DBB2022B08BF00231370F1
:10740000A2491278A24B0F6853F822003B1823F0D0
:107410007F4300220B60236815461646944613B935
:1074200042B1236006E0196881420ED902B123609F
:10743000091A1960012623680293DFF85C92002381
:107440000193BDB9DFF85CA268E0401A0E44D96828
:10745000C3F800C0D3F81CE031B1BA1922F07F4262
:10746000C3E90121DD611D4601227346D7E70025EE
:107470002E46E0E72846ED69844A43681268DFF843
:1074800028E2D0F808C0991A21F07F41714500F236
:10749000A580614401600122027422680023C0E9D2
:1074A0000133C361002A40F0A3802060C9E75A1C61
:1074B0009AF80210D2B291428AF8002004BF00224A
:1074C0008AF80020182202FB03A31A799868022A7E
:1074D0001CD0032A12D0012A20D1027CF2B9D9682B
:1074E00041601F6987605F69C7609B698361694B01
:1074F0001B78002B18BF11464160BDE700222368AE
:107500001146002B66D14AB1236007E022689346FA
:107510009046BBF1000F57D1002303749AF8003056
:107520009AF801209A42C2D1019A236822B9029A9C
:107530009A4201D1002E41D0002B7BD0D3F800908D
:10754000554C524BD4F804651868544F351A3B78A3
:1075500025F07F4503359BB94FF48033C4F844339D
:10756000C4F804334E4B4FF400324FF00108C3F817
:1075700080211A60C4F80080FFF76CFE87F8008055
:10758000A9452CBF4844401920F07F40C4F840056D
:10759000D4F804359B1B23F07F43801B033320F07A
:1075A0007F4083420AD9D4F80435C4F84035FFF748
:1075B00051FE3B4B4FF40032C3F80021354B002203
:1075C0001A7005B0BDE8F08F584536D0D846DBF8C4
:1075D0001CB09EE719740122DB6992E7D31A23F0ED
:1075E0007F43634534BFACEB03030023036052E7E2
:1075F0000168136899421BD8591A1160C26154E797
:10760000A1EB0C01D3F81CC01A46BCF1000F0AD044
:107610006346D3F800C08C45F2D3ACEB010CC3F841
:1076200000C09C4613460160C0F81CC0D86108E742
:107630001346EEE7FFF754FEC0E740450FD1D1698E
:10764000216061B9DFF844E003920123C9F80830F2
:10765000CEF800100F490B70FFF7FCFD039ADBF822
:107660001C10DBF80030C8F81C1011B10F683B4447
:107670000B60019923689A4218BF012101914BE7E1
:10768000189D0020199D0020209D00201C9D002099
:10769000109D00200C9D0020001001400D9D002039
:1076A00000E100E0009C0020FEFF7F0008B5FFF72E
:1076B00017FE104B00200B2218809A700E4B18609A
:1076C0000E4B18700E4B18700E4B4FF48012E021C9
:1076D000C3F8802183F814131A6002F18042A2F5E6
:1076E0006F22C2F8080583F81113074BD2F804255E
:1076F0001A6008BD009C0020209D0020189D0020DD
:10770000199D002000E100E01C9D0020074B9B78A4
:107710004BB132B128B10368187C20B959745A6151
:107720007047072070470820704700BF009C00206A
:107730002DE9F7431E4FBB7805460E469046A3B38E
:1077400098B304292FD943697BB3437C0024012BD0
:107750000DF107000CBF8946A1468DF8074000F0E7
:1077600007F90DF10600FFF72BFDD0B101230370DF
:10777000104B4560D3F80435C0E90498C0E90236DF
:107780009DF806307B709DF8070000F015F924B9CC
:10779000094B4FF48012C3F80021204603B0BDE826
:1077A000F0830424EFE70724F7E70824F5E700BF98
:1077B000009C00200010014000E100E0064A9278A1
:1077C0003AB130B1426922B1002202740221FFF7BE
:1077D00019BD0820704700BF009C00204B1C30B52D
:1077E000DB00044612F003009BB20DD1074D2A6066
:1077F0001A44074B1A60074B1870074B1870074B59
:107800001C80074B198030BD0720FCE72C9D002011
:10781000289D0020249D0020349D0020309D0020C4
:10782000329D00202DE9F3472B4D2B888B420646D5
:107830000C4617464CD34FF000080DF107008DF8A9
:10784000078000F095F8254B254A18781178CBB2BF
:10785000244909888B4238BF0133C0B238BF5FFA70
:1078600083F840452ED092F800801378DBB299421D
:1078700086BF0133DBB2002313709DF8070000F0D0
:107880009BF84FF6FF73984524D0DFF860A0DAF834
:1078900000304FEAC80903EB090243F83870A6B17B
:1078A0009CB1114B28881B68224608FB00303146EA
:1078B00003F03AFDDAF800304B4400209C8002B01F
:1078C000BDE8F0874FF6FF78D7E700209080F6E715
:1078D0000920F4E70420F2E7309D0020349D0020C9
:1078E000249D0020329D0020289D00202C9D0020FA
:1078F000F8B5124C124D264622782B789A4200D1C8
:10790000F8BD23780F48104A078812680F48DBB289
:1079100019B202EBC10C006852F83120BCF8041017
:1079200003FB070090470A4A23781288DBB29A4289
:1079300086BF0133DBB200233370DDE7349D0020C6
:10794000249D0020309D00202C9D0020289D00209B
:10795000329D00201FB50021CDE9021001AA44F29A
:107960000100ADF80410FCF70DFF05B05DF804FB55
:1079700070B5EFF3108672B60C4A946801239CB977
:1079800093600B4B0B4DD3F8801029401160C3F866
:107990008050D3F8841051604FF0FF32C3F8842038
:1079A000047006B962B670BD0370FAE7F0CD00202E
:1079B00000E100E0FC06FFBD10B5084B9A685AB123
:1079C00050B9EFF3108172B6054A1C6814605C6808
:1079D0005460986001B962B610BD00BFF0CD0020C0
:1079E00000E100E02AB113880144884204D118461E
:1079F00070474FF6FF73F7E75BBA10F8012B9BB2A5
:107A00005A40C2F30313534083EA03331BB25A01B3
:107A100002F4FF5253409BB2E7E70000064B074ACF
:107A200000201870064B1A600822C3E90120C3E940
:107A30000300C3E905007047359D0020389D0020F4
:107A400018B000200020704730B5F9B1124B5C68C7
:107A500000220A60E4B1B0F5167F1BD8D8681D6813
:107A60000130013CD86018695C604FF4177404FB66
:107A700000540C60012101FA00F49969013000F012
:107A80000700214318619961104630BD0E20FCE7C4
:107A90000420FAE70C20F8E718B00020F0B51C4BE2
:107AA000996899B35D691E686C1A04F00704224650
:107AB0004FF4177707FB026C604511D1012000FAE3
:107AC00002F598696840986100205E68D3F818C094
:107AD0004FF0010E724400250E4402F007020AE046
:107AE000013202F007029542E4D11020EDE749B1DE
:107AF0000139144601250EFA04F414EA0C0FA6EB22
:107B00000107F4D00DB1C3E90171F0BD0420FCE719
:107B100018B00020064A13691268013B4FF4177130
:107B200003F0070301FB0323C3F85802002070474A
:107B300018B0002030B5C0B1B9B10E4BDA68B2B19F
:107B4000013ADA609A681D6801329A605A694FF406
:107B5000177404FB025404600132D4F85802086020
:107B600002F007025A61002030BD0E20FCE704201D
:107B7000FAE700BF18B000203FB40C49086890B184
:107B80000B4B1C687CB10B4A1568CDE902500023F1
:107B90008DF804300B60136004AB13E90700234633
:107BA00004B030BC184704B030BC70473CB0002073
:107BB00040B000204CB00020DC2810B509D0DD28F2
:107BC00010D0C02816D1FFF7D7FF0E4B0E4A1A600F
:107BD00010BD0E4A0E4B19681368581C1060C02265
:107BE000CA54F2E7094A0A4B19681368581C106016
:107BF000DB22F5E7064B054A196813685C1C146024
:107C0000C854E2E740840020297C0F003CB00020EB
:107C10004CB00020C02802BF014B024A1A607047D6
:107C200040840020297C0F00C02810B409D0DB2834
:107C30000BD0094B094A196813685C1C1460C854BE
:107C400006E05DF8044BFFF797BF054B054A1A6045
:107C50005DF8044B704700BF4CB000203CB00020E2
:107C600040840020B97B0F0007B501228DF8070082
:107C70000DF10701002002F06FFD00280CBF042069
:107C8000002003B05DF804FB10B5064A064C1268EC
:107C90002368D05CFFF7E8FF10B923680133236045
:107CA00010BD00BF50B0002044B0002008B5C02077
:107CB000FFF7DAFF28B9034B1B6813B9024B034ADD
:107CC0001A6008BD44B0002044840020897C0F0065
:107CD00008B5DB20FFF7C8FF10B9024B024A1A6053
:107CE00008BD00BF44840020ED7C0F0010B50C4A95
:107CF0000C4C12682368D35CC02B03D0DB2B0DD057
:107D0000042010BDDC20FFF7AFFF0028F9D1236865
:107D1000054A01332360054B1A60F2E7DD20F2E7E4
:107D200050B0002044B00020897C0F004484002023
:107D30007FB5164C164D174E002002F0A9FC18B363
:107D400022689AB12968336899420FD2012201A9A9
:107D5000002002F0A9FC10B94FF0FF3001E09DF8BF
:107D600004000D4BC0B21B689847E5E70B4B1B683E
:107D700053B10292064A0221126803928DF8041050
:107D800004AA12E90700984704B070BD4CB0002067
:107D90003CB0002038B000204084002040B00020DB
:107DA000014B18600020704740B00020034B1A7848
:107DB0000AB901221A700020704700BF34B00020B9
:107DC000014B00201870704734B000202DE9F04FAF
:107DD00085B000284FD0294F3B78012B07D0022BCC
:107DE0000CBF04250825284605B0BDE8F08F244CBB
:107DF000244A254E254DDFF8A0A0DFF8A0B0116081
:107E00000023236002233B70214B30602B6091469E
:107E100098462268D9F800309A4215D3C5F80080F8
:107E2000FFF744FF054608BB1A4B1B6801223A7056
:107E3000E3B18DF80420326802922268039204AA0A
:107E400012E907009847CEE7336822689A5CC02A97
:107E500003D022689B5CDB2B04D12B68534508BF01
:107E6000C5F800B02B689847042801D10025BAE76F
:107E70001128CED1FAE71025B5E700BF34B00020B5
:107E800044B0002048B0002050B0002044840020BE
:107E9000AD7C0F0040B00020897C0F00D17C0F002A
:107EA000054B064A1860064B1960064B0020186007
:107EB000054B1A60704700BF4CB00020157C0F00C6
:107EC00038B000203CB0002040840020064B07481A
:107ED0001B68DB00DBB20022037004215B424270AE
:107EE0008270C370FFF772BF7CB0002054B00020D6
:107EF00070B52D4C2D4E024625462378012B14D00B
:107F000013B1022B20D070BD002AFCD12848FFF706
:107F100055FC08B1FFF71EFD264B1B68002BF2D065
:107F2000254ABDE8704010781847012AEBD1316826
:107F3000224B06311868FFF749FF08B1FFF70AFD29
:107F400002232B700022D8E7022A19D0032A0ED070
:107F5000002AD8D11A4B16481A6041F67F21FFF744
:107F6000E7FB0028CFD0BDE87040FFF7F3BC154A0F
:107F70001368013303F00703136000232370E1E764
:107F80000F4A1368052B0AD001331360074B196899
:107F90000A4B06311868BDE87040FFF717BF064B63
:107FA00001221A70E9E700BFA0B0002094B00020C1
:107FB00058B0002090B0002098B00020A8B0002059
:107FC0009CB0002080B00020F0B585B004AB03E980
:107FD00007009DF80400032878D8DFE800F00802C5
:107FE000A7AA012005B0BDE8F040FFF781BF039EBE
:107FF000564C032E40F28680029D6B7813F00F02E0
:1080000069D00E2A7ED1042E59D02A78500656D532
:10801000110654D51A44AB781A44EB781A4412F07E
:10802000FF024CD1B71E39462846FFF7DBFCEB199F
:108030005A78EB5D43EA0223984240D144492A78BA
:108040000B6802F00702D8B282422BD1013303F051
:1080500007030B60FFF73AFF3E4B012230461A70D0
:10806000FFF758FD08B1FFF775FC38494FF416705B
:10807000FFF7EAFC002862D0042802D00020FFF7B6
:1080800069FC35480521FFF70BFF08B1FFF762FCDB
:10809000324B1B68002B56D04FF0000005B0BDE8F6
:1080A000F04018474FF416712068FFF7F9FE08B149
:1080B000FFF750FC05B0BDE8F040FFF707BF2068B0
:1080C0004FF41671FFF7ECFE00283CD005B0BDE878
:1080D000F040FFF73FBC2978AA780B441344EA78B4
:1080E000134413F0FF030DD11D4A12680132C1F38E
:1080F000C20102F00702914204D11A4A0320137010
:10810000FFF7F6FE25681DB14FF416712846D9E732
:108110000E494FF41670FFF797FC60B1042802D0A7
:108120002846FFF717FC0C480521CBE705210A4834
:10813000C8E70320CAE720684FF41671C2E7206839
:108140004FF416719FE705B0F0BD00BFA4B000204A
:108150007CB0002078B0002084B000208CB00020DB
:1081600080B0002098B000200220FFF7C1BE0000C0
:10817000074B10B5044618600648FFF711FE08B11A
:10818000FFF7E8FB002C0CBF0E20002010BD00BF45
:108190008CB00020C97F0F00184A1948002310B581
:1081A0001360184A1360184A1360184A1370184A6B
:1081B0001370184B184A01211960184B1960184B9D
:1081C0001970FFF7A3FA08B1032010BDFFF726FCD2
:1081D0000028FAD1FFF7EAFD0028F6D1114C4FF440
:1081E00016702146FFF730FC0028EDD120684FF4CF
:1081F0001671BDE81040FFF753BE00BFA8B00020C5
:10820000B8B70F0094B000209CB0002078B00020D8
:10821000A0B000207CB0002069810F0080B0002059
:1082200098B00020A4B000200C4A08B500231360C9
:108230000B4A1360FFF706FC08B1FFF78BFBFFF753
:10824000BFFD08B1FFF786FB0648FFF7B7FA042821
:1082500002D10020FFF77EFB002008BD90B0002077
:108260008CB0002058B0002037B50D46044698B1B8
:1082700091B10A4B19780022019259B101A91A70E3
:10828000FFF758FC019B063B2B80236804332360D7
:1082900003B030BD0420FBE70E20F9E778B00020E2
:1082A0000438FFF7FBBB18DF70470000F0B5164C31
:1082B00087B020680F466168164603AA03C21349B7
:1082C0001D460868237A4968137001AA104B009371
:1082D00003C203A803F060F803A90246384603F07E
:1082E00023F801A803F058F801A90246304603F02C
:1082F0001BF8684603F050F869460246284603F02A
:1083000013F807B0F0BD00BFBCB70F00C5B70F0032
:10831000312E30000120704710B51C460B781E2B03
:1083200006D000232022052102F060FC204610BD6B
:108330000024FBE7F8B5069E14460D4632460021A0
:1083400018461F46FBF7EAFF6CB10A4B1B68DB07B8
:1083500000D500BE4FF0FF300AE0284600F000FADA
:10836000013504F50074B44207EB0401F5D320464F
:10837000F8BD00BFF0ED00E0F8B50A4E0D461F460F
:108380000024069B9C4207EB040101D32046F8BD64
:108390003246284600F0B6FA0028F7D0013504F539
:1083A0000074EEE7ACB0002030B5284C227A8DB0D6
:1083B0009AB107AC142200212046FBF7AFFF062537
:1083C0000B9B8DF81C50009394E80F00FDF716F8F6
:1083D0000620FCF741FD0DB030BD2368002BFAD01C
:1083E0001B4B197819B105201A70FCF735FDD4E93B
:1083F00000329A42EFD307AD142200212846FBF742
:108400008DFF637AF3B106234FF420424FF47421B9
:108410004FF460208DF81C3002F078FF68B1102214
:10842000002103A8FBF77AFF4FF460224FF420539A
:1084300003A8CDE90423FFF736FF0B9B009395E8D3
:108440000F00C3E78DF81C30F7E700BFACB0002089
:1084500048840020024B0B604FF400731380704778
:10846000090101000120704700487047F684002090
:10847000044B054A1878054B002814BF10461846CF
:10848000704700BFC8B20020AB84002049840020A0
:108490002DE9F0431F4B85B0187028B11E4B6FF0CB
:1084A0004C029A720022DA721C4A1D4D1D4F16466C
:1084B0001D4BEE4603F110097446CC461868596806
:1084C000F046A8E8030008334B45C646F6D12B78A2
:1084D00004A903F00F030B4413F8103CD373124BA1
:1084E00018685968A646AEE8030008336345744629
:1084F000F6D115F8013B04A901EB1313BD4213F8A3
:10850000103C9373A2F10202D2D10023337405B060
:10851000BDE8F083C8B20020F68400204CB30020F0
:108520006000001068000010CDB70F0010B570B9E2
:10853000134B14481968022202F0F6FE0120431C76
:10854000114A5B0043F440731380104610BD0528A8
:1085500014D80B4B53F82040204602F01DFFC0B248
:108560001F28094A28BF1F200023D9B2814202F1E7
:108570000202E4D2E15C11800133F6E70020E5E776
:1085800008850020CCB20020CAB200204DDF704721
:108590004EDF70474FDF704750DF704712DF704784
:1085A00000F0C0BE002000F037BD00001FB5244B16
:1085B000402283F8272300238DF8073043F2040379
:1085C00004461A681F4B9A4227D10DF10700FFF7A6
:1085D000E5FF9DF8073003B30120FFF7D9FF012025
:1085E000FFF7D4FF0120FFF7D5FF02A8FFF7D4FF64
:1085F000029BDA0702D5002000F094FE029B9B0745
:1086000002D5022000F08EFE2046FFF741FF00F069
:1086100027F802F00BFE04B010BD002301A88DF86E
:108620000430FCF765FC084B039303A8FCF788FCB7
:10863000FCF78CFC4FF08043D3F838340293D7E733
:1086400000E100E0DBE5B151A1850F00012000F061
:1086500069BE0120FCF700BC0220FCF7FDBB000056
:108660007FB52F492F4802F087FE43F204031A68B2
:108670002D4B9A4252D14FF440531B78102B4AD9BC
:1086800043F21002142B106846D943F214031B68FE
:10869000264CB3FBF4F50A2201A904FB153402F0C1
:1086A000C3FE23491F4802F067FE01A91D4802F0DE
:1086B00063FE20491B4802F05FFE0A2201A92846FA
:1086C00002F0B2FE01A9174802F056FE1A491548F9
:1086D00002F052FE4FF47A760A22B4FBF6F501A9B5
:1086E000284602F0A1FE01A90E4802F045FE1249FB
:1086F0000C4802F041FE0A2201A906FB154002F0D7
:1087000093FE01A9074802F037FE0C49054802F024
:1087100033FE04B070BD00200023B9E70849F5E737
:10872000CCB80F0020850020DBE5B15140420F009E
:10873000D9B80F00D7B80F00DBB80F00E6B80F00AC
:10874000DDB80F0010B50023934200DB10BD0C789C
:108750001CB10131C4540133F6E72024FAE70000CC
:108760002DE9F0410C4605464FF4007200212046E9
:10877000FBF7D4FD65B93E225B49204602F0D4FDEB
:10878000552384F8FE31AA2384F8FF31BDE8F08137
:10879000B5F5017F2DD86B1EB3F5817F24BF6FF433
:1087A000817805EB0803CBB11A02C3EBC35302F582
:1087B000807004EB432440F69365131FB3F5696F93
:1087C00002F1010306D2AA4214BF99B24FF6FF711B
:1087D00024F8121098421A46EFD1D7E7F8222270F7
:1087E00004F109012246FF2002F8010F8A42FBD161
:1087F000DAE7B5F5027F3AD86FF4017C65443DB9FC
:1088000020460B223949FFF79DFF2823E3722034CD
:10881000374B2E01002703EB05256FF03908022E98
:10882000B4D80B2229462046FFF78CFF56233D2261
:108830006FF074016374E3746376B31C677384F838
:108840000E80E1732274A2742775677584F8168010
:10885000E17522766383E86830B102F09DFDE06146
:10886000013620341035DAE74FF4E910F7E7214BF1
:108870009D428BD86FF40277EA19012A0DD81C4B60
:1088800003EB0213DD68284602F086FD2946024606
:108890002046BDE8F04102F047BD6FF4FD76A9190E
:1088A0000902B1F5801FBFF471AF134B236003F1D0
:1088B000144303F52C1303F6023363600F4BC4F823
:1088C000FC314FF46963A3614FF40053A5F20B250B
:1088D0004FF48072A3600A4B6561E1602261E3613D
:1088E00004F12000D5E700BFEAB70F0015B80F006C
:1088F0009CB80F00080101005546320A306FB10ADA
:10890000B3009A23F7B5654B14460A689A420D46A0
:1089100039D103F114434A6803F52C1303F60233EB
:108920009A4230D1D1F8FC215D4B9A422BD18B6811
:1089300023F4FF5323F01E039B049B0CB3F5005F4D
:1089400021D10B69B3F5807F1DD1C86810F0FF06F7
:1089500019D1CB69534A934205D0534A934215D05B
:10896000524A93420FD1A0F58053B3F5692F07D235
:1089700001234FF4807205F12001FBF7ADFE22E0E8
:10898000B0F5805F1FD34FF0FF3021E00127677201
:10899000CB68B3F1102F1DD104223431684602F0A8
:1089A000C3FC042205F138010DEB020002F0BCFC0F
:1089B000009BB3F5742F03D1019BB3F57E2F01D03B
:1089C0002772E0E7A772AB69002B37D14FF4007034
:1089D00003B0F0BDA3F57422B2F5204F28D2E27A9D
:1089E00001F12007DAB9324A934218D32B69B34216
:1089F00015D90422B919684602F096FC009BD02BC9
:108A000014D10422311D0DEB0200394402F08CFC1C
:108A1000264B019A9A424FF001030DD1E372E868A8
:108A20002A6901233946A0F5A030A6E70836DDE71C
:108A3000B3F5805FC7D301232372A4E72268934272
:108A400007D041F263018B4200D80AB14FF0FF33E7
:108A500023606B6941F263029342B7D803F00701C8
:108A600004EBD30301228A40197BD2B2114204D114
:108A700060680A4301301A736060D4E900329A4298
:108A8000A4D30120FBF70AFE637A002B9ED0A37AC1
:108A9000002B9BD10123237298E700BF5546320A71
:108AA000306FB10A4028A5AD3C8263D6B3009A234B
:108AB00000D80F00064B1868082802D104331B6841
:108AC00023B9A0F10D035842584170470120704767
:108AD00030010010094B012283F8D8200260BFF357
:108AE0006F8FBFF34F8F064A904202D0043A9042F4
:108AF00002D1002283F8D820704700BF60B3002065
:108B00005070024042DF704743DF704744DF7047D8
:108B100012DF704707B543F2040300201A68084BC0
:108B20009A420AD18DF807000DF10700FFF7F0FF18
:108B30009DF80700003018BF012003B05DF804FB6A
:108B4000DBE5B15107B5FFF7E5FF58B1002301A8F8
:108B50000193FFF7DBFF0198003018BF012003B03D
:108B60005DF804FB4FF08043D3F80C0400F00110D3
:108B7000A0F1011358425841F1E7000038B5144BF9
:108B8000144A5B68C3F308037BB9EFF3108363B93E
:108B9000114C63681B0608D580252B46C4F8843029
:108BA00092F8D81079B16560F8E792F8D83033B10F
:108BB000014601220948BDE8384001F04EB8BDE841
:108BC0003840FFF787BFFFF785FF656038BD00BFFE
:108BD00000ED00E060B3002000E100E07D8B0F00BD
:108BE0000D4A182303FB0023598A1A8A521A998ABC
:108BF00092B28A4228BF0A46D9681423434303F13C
:108C0000804303F51C33C3F80016C3F80426034B56
:108C100003EB8000FFF7B2BF60B300200470024096
:108C2000074BD3F8C024D10309D406490648D1F82C
:108C3000C010C3F8A017C3F8A427FFF79FBF704761
:108C40000070024060B30020487002400828F0B471
:108C500002D1F0BCFFF7E4BF0F4A104D1821414389
:108C6000561800F59473515855F82340F788B38887
:108C7000DB1B9BB2A4B2142202FB0052A34228BF0A
:108C80002346C2F80017C2F80437054BF0BC03EBCB
:108C90008000FFF773BF00BF60B300200070024088
:108CA0002870024070470000014B80225A607047D4
:108CB00000E100E0024B8022C3F88420704700BF2F
:108CC00000E100E0074BD3F80014D3F800240A4376
:108CD000C3F800240022C3F858214FF48002C3F8DF
:108CE000042370470070024070B58878404D182208
:108CF00000F07F0302FB03F6C4090C2202FB0462AE
:108D00008E882A44C6F30A061681CA7802F0030246
:108D1000012A29D0012101FA03F5364AD4B903F119
:108D20000C06B140C2F80413D2F8141503F594737D
:108D30002943C2F8141542F823402E4BC3F81805F6
:108D400040F48070C3F80C05BFF36F8FBFF34F8FF3
:108D5000012012E002339940C2F80413D2F8103512
:108D60002B43C2F81035E8E7082B07D0224B1868D0
:108D700010F0010001D000BE002070BD1D4BDCB919
:108D8000B5F8D42012B18022C3F81C250022C3F804
:108D90005021D3F8002312F4001208BFC3F8542165
:108DA000144B4FF44012C3F80423D3F8142542F4B3
:108DB0008072C3F81425C0E70022C3F82C21B5F84F
:108DC000C82012B18022C3F81C250A4BD3F8002317
:108DD00012F4001208BFC3F85421084AC3F8042350
:108DE000D3F8102542F48072C3F81025A5E700BF20
:108DF00060B3002000700240F0ED00E000082000A9
:108E00002DE9F8431D4B1E4DDFF8808080220124A0
:108E1000C3F88420274604F10C03A21C07FA02F2CF
:108E200007FA03F31343C5F80833A30003F18043A3
:108E300003F51C3300264FF018095E6009FB04801F
:108E40009E624A4631460134FBF768FA082CE2D1AB
:108E50000C4BC5F808334A46C5F81C6531466E62AE
:108E60000948AE64FBF75AFA044BC5F81475802222
:108E7000C5F810755A60BDE8F88300BF00E100E056
:108E8000007002400008300020B4002060B30020D1
:108E90002DE9F34101F07F0018269846CD091F4CBB
:108EA00046430C2303FB05630F46E118E250002301
:108EB000A1F80480CB8018B10DB3FFF791FE1AE042
:108EC000B8F1000F23D1164BD3F88034C3F3C0138D
:108ED0009D421CD01348FFF751FE134B5A68C2F352
:108EE0000802003218BF012200924346424639462A
:108EF000404600F09BFE012002B0BDE8F081344402
:108F0000A37A002BF7D0A572FFF7A0FEF3E7002DA0
:108F1000D3D10648FFF732FEEDE700BF60B3002073
:108F2000007002405070024000ED00E04C700240C2
:108F300011F07F0008B507D10D4B01225A65BFF330
:108F40006F8FBFF34F8F08BD0828F8D0084B41F44E
:108F50008072C909C3F81825F1D1064A182303FB0A
:108F600000239A7A002AEAD09972FFF76FFEE6E7AB
:108F70000070024060B3002011F0770F12D00A4B4E
:108F800041F48072C3F80C15C3F80C25CA09C3F864
:108F9000181504BF01F5947143F82120BFF36F8FBA
:108FA000BFF34F8F704700BF00700240174B012284
:108FB000002110B5C3F81425C3F810250A468B000C
:108FC00003F1804303F51C33013108295A609A628A
